:020000040000FA
:040000000EEF00F00F
:0400080084EF07F08A
:100018008CEF07F019EF03F0336E000E136E46EC09
:1000280002F03350D8B42CD0600E296E000E2A6E20
:10003800000E2C6E000E2B6E000E2E6E0B0E2D6E0B
:10004800A3EC04F00B0E0001606F4D0E6A6FF2EC2A
:1000580000F0126E550E2EEC05F0000E116E0CD04D
:100068001150010D600EF324D96E000EF420DA6EE3
:10007800DF502EEC05F0112A1250115CD8A0F0D7F1
:1000880072A2FED7CDEC04F0708011D070AE03D010
:100098007090709E708004003250D8B408D013EC71
:1000A80005F0780E0B5C050E0C58D8B0120070B035
:1000B800EDD7ECEC04F0116E000E346E000E116EEC
:1000C800090E126E000E086E000E076E000E106EFE
:1000D8004CD04BEC05F00009D8B430D0ECEC04F06F
:1000E800356E080E1118D8B402D0355010261150AC
:1000F800010D600EF324D96E000EF420DA6E35C0BF
:10010800DFFF112A000E086E000E076E040E11188C
:10011800D8A42BD0020E00016019D8B40CD0050E5B
:100128006019D8B408D00B0E6019D8B404D0070EE3
:100138006019D8A41AD06151122617D01150D8B41A
:1001480014D013EC05F0085004E1040E075CD8A0A5
:100158000CD000016969000E626F010E616F0A0E12
:10016800126E0B0E116E010E346E1250115CD8A077
:10017800B0D70C0E0001606113D03450D8A410D051
:100188001350010D000EF324D96E010EF420DA6E1F
:1001980060C0DFFF132A000E326EF2EC00F006D0CA
:1001A8006969000E626F010E616F0A0E126E550EBC
:1001B8002EEC05F0000E116E0CD01150010D600EE2
:1001C800F324D96E000EF420DA6EDF502EEC05F021
:1001D800112A1250115CD8B053D7EFD763C015F06D
:1001E80064C014F040D00FEC04F03BD0BFEC03F037
:1001F80038D063EC01F035D080EC02F032D06EECF0
:1002080003F02FD0E8EC02F02CD0E7EC03F029D073
:1002180008EC02F026D0B6EC02F0316E550E151837
:10022800D8A448D0AA0E1418D8A444D034EC04F0AA
:1002380041D0010E166E400EB26E020EB36E0A0E5B
:10024800316E010E0001696F000E626F010E616F61
:1002580031D08CEC04F005D0B9EC04F002D0696917
:100268000A0E316E27D000016051000AD8B4BBD7FE
:10027800010AD8B4BBD7030AD8B4BBD7010AD8B48B
:10028800BBD7070AD8B4BBD7010AD8B4BBD7030A6F
:10029800D8B4BBD7010AD8B4BBD70F0AD8B4BBD7D8
:1002A800010AD8B4C6D7030AD8B4D3D7010AD8B438
:1002B800D3D7D5D7315071EC04F03150120065C056
:1002C800F6FF66C0F7FF67C0F8FFA40EA66E000E23
:1002D8002E6E000E2D6E3BD0090E2D24296E000EB9
:1002E8002E202A6E600E2924D96E000E2A20DA6E7E
:1002F800DF50F56EF85005E1F628FF0EF758D8A044
:1003080005D0FE0E0001696F0A0E12000D00F650AE
:100318003F0B3F0AD8B415D0FF0E296EFF0E2A6E88
:1003280020EE61F0DECF2BF0DDCF2CF029502B260C
:100338002A502C222D502B1808E12E502C18D8A406
:1003480004D00A0026EC05F009002D4A2E2A0001E7
:1003580061512D5C62512E58D8A0BED7000E626F35
:10036800010E616F010E696F000E156E000E146E9E
:100378000A0E1200000E9D6E000EA06E000EA36EF7
:10038800000E7A6E000E7D6E000E9E6E000EA16E3F
:10039800000EA46E000E7B6E000E7E6E9E88A488F2
:1003A800000E0C6E000E0B6E45EC05F053EC04F0DD
:1003B8000009D8A406D0000E326E000E10EC00F032
:1003C8001AD036EC05F00009D8B408D051EC05F085
:1003D800000E326E010E10EC00F00DD0400EB21877
:1003E800D8A404D0020EB318D8B405D0010E326ECA
:1003F800000E10EC00F0000E706E51EC05F0000ECF
:10040800FC6E80EF07F0120065C0F6FF66C0F7FFCC
:1004180067C0F8FF100EF65C000EF758200EF8586B
:10042800D8A002D0C40E01D0840EA66E000E2B6E8A
:1004380013D02B50010D090EF326000EF422600E86
:10044800F324D96E000EF420DA6EDF50F56E0C003E
:1004580026EC05F0F62A2B2A2B50296E2A6A000171
:100468006151295C62512A58D8A0E3D7000E626F07
:10047800010E616F010E696F000E156E000E146E8D
:100488000A0E1200FC0EA96E030EAA6E000EA66ECE
:10049800A680A8CF29F0A92AA680A8CF2AF02904E7
:1004A800D8A403D02A50D8B41200010E296E000E29
:1004B8002A6EFB0EA96E040EA66E000E2C6E010E9F
:1004C8002C6401D016D0A6B2FED7A92A2C50010D53
:1004D800290EF324D96E000EF420DA6EDF50A86ED0
:1004E800550EA76EAA0EA76EA68200F000F02C2A61
:1004F800E6D7A6B2FED7120065C0F6FF66C0F7FFC2
:1005080067C0F8FF000E2A6E000E296E18D0F8504A
:1005180005E1F628FF0EF758D8A005D0FE0E000119
:10052800696F0A0E1200940EA66E26EC05F0400EB6
:10053800F626000EF722000EF822294A2A2A000180
:100548006151295C62512A58D8A0E1D7000E626F28
:10055800010E616F010E696F000E636F000E646F0C
:100568000A0E120065C0F6FF66C0F7FF67C0F8FF05
:10057800800EA66E000E0E6E000E0D6E61C029F084
:1005880062C02AF0000E2C6E000E2B6E0CD00900F3
:10059800F5500D26000E0E220900F5500E26020E0B
:1005A8002B26000E2C2229502B5C2A502C58D8A020
:1005B800EED70DC069F00E5000016A6F000E626F31
:1005C800020E616F0B0E120065C0A9FF66C0AAFF7C
:1005D800040EA66E000E2B6E16D0A6B2FED7A93E4C
:1005E80001D0AA2A2B50010D090EF326000EF42281
:1005F800600EF324D96E000EF420DA6EDF50A86E78
:1006080026EC05F02B2A2B50296E2A6A000161512D
:10061800295C62512A58D8A0E0D7000E626F010EFB
:10062800616F010E696F0A0E12003C0EF66E0A0E1B
:10063800F76E000EF86E00EE19F010EE10F00900DB
:10064800F5CFEEFFE550E150FAE101EE00F011EED2
:1006580000F0EE6AE550E150FCE1E250FAE100EE0C
:1006680060F0490EEE6AE806FDE100EE01F0180EB2
:10067800EE6AE806FDE1000EF86E000156EF05F09F
:10068800000E8D6E000E8C6E000E896E000E8A6E46
:10069800000E8B6E000E846E000E836E000E806E50
:1006A800000E816E000E826E070E966E9268936839
:1006B800BF0E946EBF0E956E000E0F013B6F000EBD
:1006C8003A6F000E396F000E3C6F000E386F000E47
:1006D800616E120065C0A9FF66C0AAFF000EA66E73
:1006E800000E2B6E13D0A6802B50010D090EF32699
:1006F800000EF422600EF324D96E000EF420DA6E98
:10070800A8CFDFFFA93E01D0AA2A2B2A2B50296E99
:100718002A6A00016151295C62512A58D8A0E3D79E
:100728006151090F1200000EA66EFE0EA96E030E8F
:10073800AA6E000E336E0DD0A6803350010D2B0E1D
:10074800F324D96E000EF420DA6EA8CFDFFFA92AB1
:10075800332A010E3364F0D72CC031F0326A31509D
:10076800326E316A2B503126000E322231C029F008
:1007780032C02AF0120065C0F6FF66C0F7FF67C0F6
:10078800F8FF800EA66E000E2C6E000E2B6E11D098
:100798000900090E2B24296E000E2C202A6E600EEB
:1007A8002924D96E000E2A20DA6EF5CFDFFF2B4AF6
:1007B8002C2A000161512B5C62512C58D8A0E8D733
:1007C8006151090F120065C0F6FF66C0F7FF67C0E8
:1007D800F8FFC00EA66E000E2B6E10D009002B502D
:1007E800010D090EF326000EF422600EF324D96ED3
:1007F800000EF420DA6EF5CFDFFF2B2A2B50296E7E
:100808002A6A00016151295C62512A58D8A0E6D7AA
:100818006151090F1200000E296E0F0E296401D0D4
:1008280018D02950010D190EF324D96E000EF420AA
:10083800DA6E2950010D090EF326000EF422600E1F
:10084800F324E16E000EF420E26EDFCFE7FF292AE1
:10085800E4D7000E0001626F100E616F190E1200CE
:10086800FD0EA96E030EAA6E000E296E010E2964F4
:1008780001D01200A92A2950010D090EF326000EF5
:10088800F422600EF324D96E000EF420DA6EDF50E5
:10089800A86EFAEC04F0A1A8FED7292AE7D7000E23
:1008A8000001656F0F0E666F000E676FF10E626FC5
:1008B800000E616FB6EC02F097EC03F029C034F03B
:1008C8002AC035F00D50341804E10E503518D8B44C
:1008D80002D0000E1200010E1200296E000E000157
:1008E800686F000E2A6E000E2B6E0BD02B50010D78
:1008F800600EF324D96E000EF420DA6EDF502A263B
:100908002B2A29502B5CD8A0F1D72AC068F01200F6
:10091800690E296E000E2A6E000E2C6E000E2B6ECC
:10092800000E2E6E400E2D6EA3EC04F04D0E00014D
:10093800696F000E626F090E616F120E120029C0F6
:100948002FF02AC030F008D02FC0D9FF30C0DAFF0E
:100958002BC0DFFF2F4A302A2D06D8A02E062D28BF
:10096800F3E12E28D8B41200EFD769C029F06AC085
:100978002AF0010E0001696F2950D8A403D04D0E4A
:100988002A18D8A46969000E626F010E616F0A0EF9
:1009980012001604D8A41200000E0C6E000E0B6E86
:1009A80013EC05F00C5004E1020E0B5CD8A0F8D74C
:1009B800FF00F6D73EEC05F0F29E000EE06E000E4A
:1009C800FC6E44EC03F007EC05F0BEEC01F01200FD
:1009D80001D00400A4AAFDD771CF29F0060E29166C
:1009E800D8B402D07198718874501200000EA66EA7
:1009F800A198A684550EA76EAA0EA76EA68200F02F
:100A080000F0A6941200080E706E900E716E240EFF
:100A1800726E560E756E000E766E0F901200F2A46E
:100A28001200F294D7689E0ED66E0B4A0C2A074A1B
:100A3800082A12004101000100000454000040404F
:100A480000231F3C15C0A7FF14C0A7FFA68200F013
:100A580000F01200296E01D00400A4A8FDD729C017
:100A680073FF1200550EB218D8A402D0010E12005E
:100A7800000E1200300ED36E040ED26E000E9B6E66
:100A88001200C70ED56ED7689E0ED66E1200A4AAA5
:100A980002D0010E1200000E1200000EB36EB3CF8A
:0A0AA800B2FF1200DEEC04F0FFD7ED
:020000040020DA
:08000000FFFFFFFFFFFFFFFF00
:020000040030CA
:0E000000FF231F33FFBF81FF0FC00FE00F4033
:00000001FF
